:020000040800F2
:10000000B00D002029020008BD280008C524000802
:10001000B92800081F040008393200080000000059
:100020000000000000000000000000005D29000842
:100030007305000800000000BF2800085F290008C1
:10004000430200084302000843020008430200087C
:10005000430200084302000843020008430200086C
:10006000430200084302000843020008430200085C
:10007000430200084302000843020008430200084C
:10008000430200084302000843020008430200083C
:100090002504000843020008430200084302000848
:1000A000430200084302000843020008430200081C
:1000B000430200084302000843020008430200080C
:1000C00043020008430200084302000843020008FC
:1000D00043020008430200084302000815310008EB
:1000E00043020008430200084302000843020008DC
:1000F00043020008430200084302000843020008CC
:1001000043020008430200084302000843020008BB
:1001100043020008430200084302000843020008AB
:10012000430200084302000843020008430200089B
:10013000430200084302000843020008430200088B
:100140003504000843020008430200084302000887
:10015000430200084302000843020008430200086B
:10016000430200084302000843020008430200085B
:100170004302000843020008430200080000000098
:10018000430200084302000800F002F800F03CF8C7
:100190000AA090E8000C82448344AAF10107DA45E2
:1001A00001D100F031F8AFF2090EBAE80F0013F0F8
:1001B000010F18BFFB1A43F00103184790380000E5
:1001C000B0380000103A24BF78C878C1FAD8520776
:1001D00024BF30C830C144BF04680C6070470000C1
:1001E0000023002400250026103A28BF78C1FBD840
:1001F000520728BF30C148BF0B6070471FB503F0DE
:100200000FFC1FBD10B510BD00F0CFF81146FFF771
:10021000F5FF03F023FA00F0EDF803B4FFF7F2FF67
:1002200003BC00F0F5F80000094880470948004782
:10023000FEE7FEE7FEE7FEE7FEE7FEE7FEE7FEE796
:10024000FEE7FEE704480549054A064B70470000F3
:100250001D2A000889010008B0070020B00D002009
:10026000B0090020B009002053EA020C00F06980B8
:100270002DE9F04B4FF00006002B1FBFB3FA83F5BA
:1002800003FA05F424FA05F65E4012BF1643B2FAEB
:1002900082F502FA05F4C5F120051EBF22FA05FC1D
:1002A00044EA0C04203556EA044C4FEA144418BFC3
:1002B000641C4FF000084FF00009904271EB030CF2
:1002C00039D3002919BFB1FA81F701FA07F6B0FA5C
:1002D00080F700FA07F6C7F120071EBF20FA07FCD7
:1002E00046EA0C062037B6FBF4FCA7EB0507103FE7
:1002F00007F01F0BCBF120060CFA0BFB2CFA06F6CD
:1003000044BFB3460026202FA4BF5E464FF0000B2B
:100310005BEA060C08BF4FF0010B19EB0B09ABFBB6
:10032000027C48EB0608C01B06FB02CC0BFB03CC8F
:1003300071EB0C01C1E70B46024641464846BDE859
:10034000F08B13B54FF000004FF00001AFF30080C9
:10035000BDE81C4070474FF0000200B513469446BC
:100360009646203922BFA0E80C50A0E80C50B1F10D
:100370002001BFF4F7AF090728BFA0E80C5048BF21
:100380000CC05DF804EB890028BF40F8042B08BFBF
:10039000704748BF20F8022B11F0804F18BF00F8BB
:1003A000012B7047704770477047754600F02CF876
:1003B000AE4605006946534620F00700854618B052
:1003C00020B5FFF73FFFBDE820404FF000064FF09B
:1003D00000074FF000084FF0000B21F00701AC467A
:1003E000ACE8C009ACE8C009ACE8C009ACE8C00999
:1003F0008D46704710B50446AFF300802046BDE837
:100400001040FFF70ABF0000004870474C0700206B
:1004100001491820ABBEFEE726000200704700BF6E
:10042000FEE7000010B5024800F0B7FA10BD00006A
:100430004C00002010B5024800F0AFFA10BD0000DB
:1004400074000020F8B507460C4615461E4640F2DB
:10045000FF100D49086000208860C860082008610E
:10046000380A0A4908704F70200A8870CC70280A30
:1004700008714D71300A8871CE716B460A46024987
:10048000034800F08DF8F8BDD406002038000020A5
:100490004C0000200146087810381823B0FBF3F216
:1004A0000848805CC865032A05D908686FF309000D
:1004B000001D886503E008686FF309008865886D92
:1004C000704700002A3A0008014600208A6A8B69BA
:1004D000CBB932B1012A0DD0022A03D0032A10D1A0
:1004E0000EE000BFCB6A03F08073B3F1807F00D1D0
:1004F000012007E0CB6AB3F1C07F00D1012001E009
:1005000000E000BF34E08B69B3F5005F1AD132B16F
:10051000012A07D0022A03D0032A11D10AE000BF22
:1005200001200EE0CB6A03F08073B3F1807F00D12D
:10053000012006E0CB6AB3F1C07F00D1012000E0CA
:1005400000BF15E032B1012A05D0022A04D0032AE7
:100550000CD103E000BF00BF012008E0CB6A03F02C
:100560008073B3F1807F00D1012000E000BF00BFA5
:1005700070477047704710B5024692F82030012B43
:1005800001D0022B06D110684069084314686061ED
:10059000002010BD506A40F4802050620120F8E72E
:1005A000F0B504460D461E4694F820702068836816
:1005B000A86800B900E000BF012F01D0022F7CD154
:1005C00003F0806030B903F0006018B903F0805088
:1005D000002873D0C3F30161022905D9606A40F491
:1005E000000060620120F0BD012088403060A868F2
:1005F00060B9B5F800C0E86840EA4C5C206800F5D6
:10060000C07000EB0110C0F800C00FE0D5E901C0D8
:1006100040EACC00D5F80CC040EA0C00D4F800C089
:100620000CF5C07C0CEB011CCCF80000D5F810C018
:10063000206800F5C07000EB0110C0F804C0287DF0
:1006400001280ED1206800F5C07000EB0110406851
:1006500040F4807C206800F5C07000EB0110C0F809
:1006600004C0D079000692F806C040EA0C4092F827
:1006700005C040EA0C2C10794CEA000C206800F50B
:10068000C07000EB0110C0F80CC0D078000692F8E2
:1006900002C040EA0C4092F801C040EA0C2092F8F7
:1006A00000C040EA0C00D4F800C00CF5C07C0CEB94
:1006B000011CCCF80800206801E016E00FE000F50E
:1006C000C07000EB0110006840F0010C206800F5DC
:1006D000C07000EB0110C0F800C0002083E7606A22
:1006E00040F40010606201207DE7606A40F48020E1
:1006F0006062012077E70000F0B504460A462168F1
:1007000094F82050012D01D0022D7ED1424901F5EF
:100710000071086840F001000860086820F47C500F
:1007200008600868566A40EA06200860107D00F0FC
:100730001F06012000FA06F3C8699843C861A1F5B5
:100740000071D069C8B9D1F80C029843C1F80C0205
:10075000908880B2968940EA064601F51070576984
:1007600040F83760108880B2168940EA064601F5E5
:100770001070576900EBC7004660D069012819D195
:10078000D1F80C021843C1F80C02908880B2168888
:1007900040EA064601F51070576940F837609089C5
:1007A00080B2168940EA064601F51070576900EBE1
:1007B000C7004660906928B9D1F804029843C1F88F
:1007C000040204E0D1F804021843C1F804021069DD
:1007D00028B9D1F814029843C1F8140204E0D1F802
:1007E00014021843C1F81402106A012804D1D1F888
:1007F0001C021843C1F81C02D1F8000220F00100CD
:10080000C1F800020020F0BDFFE7606A40F48020DC
:1008100060620120F7E7000000640040704770B597
:10082000044694F82050012D01D0022D7CD151B9FD
:100830002068C06800F0030080B9606A40F40010CE
:100840006062012070BD2068006900F0030028B9D3
:10085000606A40F4001060620120F3E7206800F550
:10086000D87000EB0110006800F004009060906800
:1008700040B9206800F5D87000EB01100068400D09
:10088000106007E0206800F5D87000EB01100068E8
:10089000C0085060206800F5D87000EB01100068B7
:1008A00000F002004008D060206800F5D87000EB2E
:1008B0000110406800F00F001061206800F5D8704A
:1008C00000EB0110406800F47F40000A906120684E
:1008D00000F5D87000EB01104068000C50612068F2
:1008E00000F5D87000EB011080681870206800F5E2
:1008F000D87000EB0110806800F47F40000A587047
:10090000206800F5D87000EB0110806800F47F00CB
:10091000000C9870206800F5D87000EB011080681A
:10092000000ED870206800E031E000F5D87000EBD0
:100930000110C0681871206800F5D87000EB011034
:10094000C06800F47F40000A5871206800F5D87034
:1009500000EB0110C06800F47F00000C9871206863
:1009600000F5D87000EB0110C068000ED87131B9E5
:100970002068C06840F020002668F06005E020682C
:10098000006940F020002668306100205AE7606A64
:1009900040F480206062012054E72DE9F05F0446B6
:1009A0000025206846692068D0F804902068876890
:1009B0002068D0F80CA02068D0F810B02068D0F8DB
:1009C000188006F00100002855D007F00100C0B1E2
:1009D00001202168886007F0020018B1204600F06D
:1009E000B8FB0EE007F0040010B145F4006508E024
:1009F00007F0080010B145F4805502E0204600F0F1
:100A0000A7FB07F48070C8B14FF48070216888603C
:100A100007F4007018B1204600F09DFB0EE007F4CB
:100A2000806010B145F4005508E007F4006010B193
:100A300045F4804502E0204600F08CFB07F480304E
:100A4000C8B14FF480302168886007F4003018B1D5
:100A5000204600F082FB0EE007F4802010B145F440
:100A6000004508E007F4002010B145F4803502E0AD
:100A7000204600F071FB06F0080038B10AF01000C3
:100A800020B145F4007510202168C86006F004000C
:100A900040B10AF0080028B108202168C86020464B
:100AA00000F00CFA06F0020038B12068C06800F0CF
:100AB000030010B1204600F003FA06F0400038B100
:100AC0000BF0100020B145F480651020216808610A
:100AD00006F0200040B10BF0080028B10820216882
:100AE0000861204600F002FB06F0100038B12068D3
:100AF000006900F0030010B1204600F0F8FA06F497
:100B0000003040B109F0100028B110202168486081
:100B1000204600F0EDFA06F4803040B109F00800FC
:100B200028B1082021684860204600F017FB06F431
:100B3000004088B309F0040078B306F4807020B157
:100B400008F0010008B145F0010506F4007020B17D
:100B500008F0020008B145F0020506F4806020B1FB
:100B600008F0040008B145F0040506F40060A0B1E7
:100B700008F0700088B108F07000402817D006DC3B
:100B800010280BD020280CD0302819D10CE0502888
:100B900010D0602814D110E01DE019E045F00805E0
:100BA0000FE045F010050CE045F0200509E045F0A8
:100BB000400506E045F0800503E045F4807500E05F
:100BC00000BF00BF2068806920F070002168886144
:100BD0000420216848602DB1606A28436062204685
:100BE000FFF71CFEBDE8F09F70B504460CB901206C
:100BF00070BD94F8200010B9204600F0AFF82068CE
:100C0000006820F002002168086000F033FC05460F
:100C10000DE000F02FFC401B0A2808D9606A40F460
:100C200000306062052084F820000120E0E72068A1
:100C3000406800F002000028EBD12068006840F016
:100C400001002168086000F015FC05460DE000F089
:100C500011FC401B0A2808D9606A40F40030606229
:100C6000052084F820000120C2E72068406800F0D9
:100C700001000028EBD0207E012806D12068006802
:100C800040F080002168086005E02068006820F0DE
:100C9000800021680860607E012806D12068006815
:100CA00040F040002168086005E02068006820F0FE
:100CB000400021680860A07E012806D120680068F5
:100CC00040F020002168086005E02068006820F0FE
:100CD000200021680860E07E012806D120680068B5
:100CE00020F010002168086005E02068006840F0EE
:100CF000100021680860207F012806D12068006864
:100D000040F008002168086005E02068006820F0D5
:100D1000080021680860607F012806D1206800680B
:100D200040F004002168086005E02068006820F0B9
:100D3000040021680860D4E90201084321690843DE
:100D4000616908436168491E08432168C861002041
:100D50006062012084F82000002049E710B586B0C9
:100D60000446142101A8FFF7F6FA4E49206888428C
:100D700041D14D480068401C4B4908600846006856
:100D800001280FD100BF002000904848006840F0C3
:100D90000070464908600846006800F00070009046
:100DA00000BF00BF00BF002000904048103800681E
:100DB00040F008003D49103908600846006800F01E
:100DC0000800009000BF00BF0320019002200290A5
:100DD00000200390032004900920059001A93448C5
:100DE00000F048FA00221146142000F0CDFB142038
:100DF00000F0BAFB54E02F492068884250D100BF70
:100E0000002000902948006840F080602749086071
:100E10000846006800F08060009000BF00BF2248D4
:100E20000068401C204908600846006801280FD16E
:100E300000BF002000901D48006840F000701B4972
:100E400008600846006800F00070009000BF00BF16
:100E500000BF0020009015481038006840F00200E4
:100E60001249103908600846006800F0020000903E
:100E700000BF00BF6020019002200290002003907C
:100E8000032004900920059001A90B4800F0F2F915
:100E900000221146402000F077FB402000F064FB68
:100EA00006B010BD006400400C0000204038024035
:100EB000000C02400068004000040240704700003F
:100EC00010B58AB0044601AB03AA00212046FFF703
:100ED000A6FC0398A0F2012007286ED2DFE800F0FC
:100EE00004274A6EB8DC92007F48008800B27E4931
:100EF00008819DF805009DF8041040EA01207A4918
:100F000008809DF807009DF8061040EA012000B215
:100F1000754948809DF809009DF8081040EA0120B5
:100F200000B2714988809DF80A008871D9E06E4846
:100F3000408901B26C4841829DF805009DF804107B
:100F400040EA0120684948819DF807009DF8061095
:100F500040EA012001B2644881819DF809009DF8B2
:100F6000081040EA012001B25F48C1819DF80A10D3
:100F70000174B6E05C48808A01B25B4881839DF8C9
:100F800005009DF8041040EA0120574988829DF829
:100F900007009DF8061040EA012001B25248C182C4
:100FA0009DF809009DF8081040EA012001B24E4862
:100FB00001839DF80A10817693E091E04A48C08B46
:100FC00001B24948C1849DF805009DF8041040EA2B
:100FD00001204549C8839DF807009DF8061040EAA6
:100FE000012001B2404801849DF809009DF80810D5
:100FF00040EA012001B23C4841849DF80A1080F883
:1010000024106EE03848808F01B23748A0F84410B1
:101010009DF805009DF8041040EA012032498887B8
:101020009DF807009DF8061040EA012001B22E4805
:10103000C1879DF809009DF8081040EA012001B21F
:101040002948A0F840109DF80A1080F8421048E0A6
:101050002548008D01B2244801869DF805009DF8C1
:10106000041040EA0120204908859DF807009DF8FA
:10107000061040EA012001B21B4841859DF8090095
:101080009DF8081040EA012001B2174881859DF8BB
:101090000A1080F82E1024E01348408E01B2124846
:1010A00041879DF805009DF8041040EA01200E4993
:1010B00048869DF807009DF8061040EA012001B21D
:1010C000094881869DF809009DF8081040EA012032
:1010D00001B20548C1869DF80A1080F8381000E07A
:1010E00000BF00BF0AB010BD7406002070477047F3
:1010F000704770B5044694F82000012822D10220E0
:1011000084F820002068006820F001002168086051
:1011100000F0B0F905460DE000F0ACF9401B0A28DC
:1011200008D9606A40F400306062052084F820002D
:10113000012070BD2068406800F001000028EBD15C
:101140006062F6E7606A40F4002060620120F0E728
:10115000704770477047704770477047704700008E
:101160002DE9F0410446002500F084F9074614B942
:101170000120BDE8F081606A00B100BF00BF00201F
:1011800084F8340000BF022084F83500206800682D
:1011900020F00100216808600AE000F06BF9C01B34
:1011A000052805D920206065032084F83500E0E794
:1011B0002068006800F001000028EED12068056872
:1011C00021480540D4E901010843E1680843216949
:1011D000084361690843A1690843E1690843216A3A
:1011E00008430543606A042803D1D4E90B0108438E
:1011F0000543206805602068456925F00705606A99
:101200000543606A04280DD1A06A0543E06A48B12D
:101210002046FFF759F928B140206065012084F885
:101220003500A6E7206845612046FFF733F90646FA
:1012300094F85C103F208840B06000206065012079
:1012400084F83500002094E73F8010F070B5044624
:1012500000F010F906462546681C10B104480078D5
:10126000054400BF00F006F9801BA842FAD370BD08
:1012700028000020F8B502460B4600250024002077
:101280000021DCE0012606FA01F51E6806EA0504E5
:10129000AC4273D15E68022E02D05E68122E13D16A
:1012A000CF0802F1200656F827004E07F70E0F264A
:1012B000BE40B0434F07FF0E1E69BE403043CF080B
:1012C00002F1200646F8270010684F000326BE40B2
:1012D000B0431E7906F003064F00BE403043106055
:1012E0005E68012E08D05E68022E05D05E68112E61
:1012F00002D05E68122E13D190684F000326BE40C4
:10130000B0434F00DE68BE40304390605068012615
:101310008E40B0431E79C6F300168E4030435060B5
:10132000D0684F000326BE40B0434F009E68BE40C9
:101330003043D0605E6806F08056B6F1805F7DD1A4
:1013400000BF00260096404E366846F480463E4F69
:101350003E603E46366806F48046009600BF00BFF9
:101360003A4E8F0856F827008E07370F0F26BE40DB
:10137000B043374EB24202D1002624E05EE0354E43
:10138000B24201D101261EE0334EB24201D1022603
:1013900019E0324EB24201D1032614E0304EB2427F
:1013A00001D104260FE02F4EB24201D105260AE0FA
:1013B0002D4EB24201D1062605E02C4EB24201D19B
:1013C000072600E008268F073F0FBE4030431F4E20
:1013D0008F0846F82700264E3068A0435E6806F462
:1013E0008036B6F5803F00D12043214E3060361D57
:1013F0003068A0435E6806F40036B6F5003F00D1C1
:1014000020431B4E361D3060361D3068A0435E6899
:1014100006F48016B6F5801F00D12043144E08361E
:101420003060361D3068A0435E6806F40016B6F5DD
:10143000001F00D120430E4E0C363060491C10298D
:10144000FFF420AFF8BD00004438024008380140E6
:10145000000002400004024000080240000C02406C
:10146000001002400014024000180240001C02401C
:10147000003C014001480068704700002000002047
:101480000348006803490978084401490860704727
:10149000200000202800002010B50D48006840F40E
:1014A00000700B4908600846006840F480600860DE
:1014B0000846006840F480700860032000F0A2F83D
:1014C000002000F007F800F02BF8002010BD00000D
:1014D000003C024070B504460E4800784FF47A7123
:1014E000B1FBF0F00C490968B1FBF0F5284600F0BB
:1014F000FFFB08B1012070BD102C07D2002221464D
:10150000501E00F041F80548046001E00120F2E7B8
:101510000020F0E7280000202C00002024000020FC
:1015200008B500BF002000900E48006840F48040DD
:101530000C4908600846006800F48040009000BF35
:1015400000BF00BF00200090081F006840F08050DE
:10155000091F08600846006800F08050009000BF36
:1015600000BF08BD4438024001460846002809DB98
:1015700000F01F0301229A4043099B0003F1E0237E
:10158000C3F8002100BF70472DE9F05F80460D468B
:101590001646002701F052FE074639462A463346D2
:1015A00001F00700C0F1070ABAF1040F02D94FF0A9
:1015B000040A01E0C0F1070AD14600F1040ABAF1B9
:1015C000070F02D24FF0000A01E0A0F1030AD4464F
:1015D0004FF0010A0AFA09FAAAF1010A0AEA020A14
:1015E0000AFA0CFA4FF0010B0BFA0CFBABF1010BF2
:1015F0000BEA030B4AEA0B042146404601F026FEA3
:10160000BDE8F09F00BF00F00702064B19684FF6D7
:10161000FF031940044B0B4343EA0221014B1960BD
:1016200000BF70470CED00E00000FA0570B50446FD
:101630000D460CB9012070BD5848006800F00F003D
:10164000A84209D255490D700846006800F00F0005
:10165000A84201D00120EEE7207800F00200022825
:101660001DD1207800F00400042805D14C48006802
:1016700040F4E0504A490860207800F0080008284B
:1016800005D14748006840F4604045490860444837
:10169000006820F0F000A168084341490860207804
:1016A00000F00100A8B36068012807D13C48083861
:1016B0000068C0F34040B8B90120BCE76068022868
:1016C00002D06068032807D1354808380068C0F3A5
:1016D000406048B90120AEE7314808380068C0F3DF
:1016E000400008B90120A6E72D48006820F003005B
:1016F000616808432A490860FFF7BCFE064609E016
:10170000FFF7B8FE801B41F28831884202D90320DE
:1017100091E707E02248006800F00C006168B0EB38
:10172000810FEDD11D48006800F00F00A84209D9D3
:101730001A490D700846006800F00F00A84201D059
:10174000012078E7207800F00400042807D114482D
:10175000006820F4E050E1680843114908602078EF
:1017600000F00800082808D10D48006820F4604007
:10177000216940EAC1000A49086000F03DF80849C3
:101780000968C1F30311074A515CC8400649086063
:101790000020FFF79FFE00204DE70000003C0240C4
:1017A00008380240323A00082C0000200148006846
:1017B000704700002C00002000B5FFF7F7FF044938
:1017C0000968C1F38221034A515CC84000BD000092
:1017D00008380240423A000800B5FFF7E7FF044925
:1017E0000968C1F34231034A515CC84000BD0000A2
:1017F00008380240423A00082DE9F047002400254D
:101800000026A1462548006800F00C0020B10428FD
:1018100005D008283AD105E0DFF8849039E0DFF8F8
:10182000849036E01D48001F006800F03F041B480C
:10183000001F006800F4800078B11A481749091F9A
:101840000968C1F38811A0FB0170014622460023FC
:101850003846FEF709FD05460EE011480F49091FFD
:101860000968C1F38811A0FB0170014622460023DC
:101870003846FEF7F9FC05460848001F0068C0F32B
:101880000140401C4600B5FBF6F902E0DFF810907D
:1018900000BF00BF4846BDE8F0870000083802409E
:1018A0000024F400001BB700F8B504460CB9012071
:1018B000F8BD207800F00100002874D0F9480068D5
:1018C00000F00C0004280DD0F648006800F00C0071
:1018D000082813D1F348001F006800F48000B0F519
:1018E000800F0BD1EF4808380068C0F34040002853
:1018F00059D06068002856D10120D9E700BF606840
:10190000B0F5803F08D1E7480838006840F48030DF
:10191000E449083908601EE06068B0F5A02F0DD1D9
:10192000E0480838006840F48020DE490839086043
:101930000846006840F4803008600CE0D948083858
:10194000006820F48030D7490839086008460068EC
:1019500020F48020086000BF606890B1FFF78AFD26
:10196000054606E0FFF786FD401B642801D90320E9
:101970009EE7CC4808380068C0F340400028F1D00A
:1019800011E0FFF777FD054606E0FFF773FD401B0A
:10199000642801D903208BE7C24808380068C0F3E7
:1019A00040400028F1D1207800F0020002285FD1E9
:1019B000BC48006800F00C0058B1BA48006800F05C
:1019C0000C0008281CD1B748001F006800F48000F4
:1019D000B0B9B44808380068C0F3400020B1E068EE
:1019E000012801D0012063E7AE480838006820F0E4
:1019F000F800216940EAC100AA490839086037E0C7
:101A0000E06800B30120A8490860FFF733FD0546F0
:101A100006E0FFF72FFD401B022801D9032047E70E
:101A2000A04808380068C0F340000028F1D09D4865
:101A30000838006820F0F800216940EAC10099499F
:101A40000839086014E0002097490860FFF712FD8C
:101A5000054606E0FFF70EFD401B022801D90320D2
:101A600026E7904808380068C0F340000028F1D10C
:101A7000207800F0080008282CD16069A8B1012066
:101A80008A490860FFF7F6FC054606E0FFF7F2FC1E
:101A9000401B022801D903200AE782486C30006805
:101AA000C0F340000028F1D014E000207F49086016
:101AB000FFF7E0FC054606E0FFF7DCFC401B0228D0
:101AC00001D90320F4E677486C300068C0F3400089
:101AD0000028F1D1207800F00400042870D10026FD
:101AE00070483830006800F0805090B900BF002086
:101AF00000906C483830006840F0805069493831B7
:101B000008600846006800F08050009000BF00BFE9
:101B100001266748006800F48070B0B96448006826
:101B200040F4807062490860FFF7A4FC054606E0B7
:101B3000FFF7A0FC401B022801D90320B8E65C484F
:101B4000006800F480700028F2D000BFA06801286F
:101B500008D154486830006840F0010051496831AC
:101B600008601DE0A06805280DD14E486830006867
:101B700040F004004B49683108600846006840F0B6
:101B8000010008600CE047486830006820F0010060
:101B90004449683108600846006820F00400086085
:101BA00000BFA068A8B1FFF765FC054609E0FFF794
:101BB00061FC401B41F28831884202D9032077E65C
:101BC00026E0384868300068C0F340000028EED0B6
:101BD00013E0FFF74FFC054608E0FFF74BFC401B06
:101BE00041F28831884201D9032061E62D486830EE
:101BF0000068C0F340000028EFD1012E07D129482A
:101C00003830006820F0805026493831086000BF25
:101C1000A069B8B32348006800F00C0008285ED023
:101C2000A069022846D100201F490866FFF722FC60
:101C3000054606E0FFF71EFC401B022801D90320E1
:101C400036E6184808380068C0F340600028F1D133
:101C5000D4E907010843616A40EA81110122A06AC0
:101C6000C2EB500041EA00412C20005D41EA0060D7
:101C70000C49091F086001200B490866FFF7FAFBB1
:101C8000054607E02DE0FFF7F5FB401B022801D9D0
:101C900003200DE6034808380068C0F340600028C0
:101CA000F1D01EE00838024000004742800E474253
:101CB0000070004000200C490866FFF7DBFB05467A
:101CC00006E0FFF7D7FB401B022801D90320EFE510
:101CD00006480068C0F340600028F2D101E001200E
:101CE000E6E50020E4E5000000004742003802403D
:101CF00070B504462546681EB0F1807F01D30120EF
:101D00000FE0681E4FF0E02148610F214FF0FF30D7
:101D100001F09CFA00204FF0E02188610720086163
:101D2000002070BD10B50346002200BF93F83C00B0
:101D3000012801D1022010BD012083F83C0000BF22
:101D400022F0FF00CC6840EA040222F440708C6864
:101D500040EA040222F480604C6840EA040222F463
:101D600000600C6840EA040222F480500C6940EAEA
:101D7000040222F400504C6940EA040222F480403C
:101D8000CC6940EA04021868426400BF002083F86E
:101D90003C0000BF00BFCEE710B5024600BF92F87E
:101DA0003C00012801D1022010BD012082F83C0036
:101DB00000BF022082F83D00106843681068846804
:101DC00023F070030868034324F080044868044348
:101DD0001068436010688460012082F83D0000BFF5
:101DE000002082F83C0000BF00BFDDE710B50446CC
:101DF0000CB9012010BD94F83D0028B9002084F8EA
:101E00003C00204600F00CF8022084F83D00211D23
:101E1000206800F035FE012084F83D000020E9E74D
:101E200008B5144A016891420FD100BF002100910A
:101E30001149096841F001010F4A11601146096812
:101E400001F00101009100BF13E00C4A01689142CA
:101E50000FD100BF002100910749096841F002013C
:101E6000054A11601146096801F00201009100BFA6
:101E700000BF08BD0000014044380240000401409A
:101E80000146022081F83D000868806800F00702E2
:101E9000062A05D00868006840F001000B68186049
:101EA000012081F83D00002070472DE9F0410446F3
:101EB0000D4600BF94F83C00012802D10220BDE885
:101EC000F081012084F83C0000BF022084F83D002E
:101ED0002068866826F0770626F47F4620688660AC
:101EE0002868502833D00CDC202850D004DC00288F
:101EF0004BD0102851D149E0302849D040284CD14E
:101F000039E060282DD0702807D0B0F5805F03D06D
:101F1000B0F5005F41D10DE040E0D5E902136A68F9
:101F2000206800F02AFE2068866846F07706206860
:101F3000866033E0D5E902136A68206800F01DFE70
:101F40002068806840F480402168886026E0EA6864
:101F50006968206800F002FF5021206800F018FE38
:101F60001CE0EA686968206800F00BFF60212068C7
:101F700000F00EFE12E0EA686968206800F0EEFEEC
:101F80004021206800F004FE08E000BF00BF00BF51
:101F90002968206800F0FCFD00E000BF00BF0120C0
:101FA00084F83D0000BF002084F83C0000BF00BF63
:101FB00085E7000010B586B00446142101A8FEF79D
:101FC000CAF93949206888421FD100BF002000901B
:101FD0003648006840F01000344908600846006840
:101FE00000F01000009000BF00BF4FF4D4400190FB
:101FF000022002900120039002200490012005900D
:1020000001A92B48FFF736F94BE02A49206888429E
:1020100047D100BF002000902448006840F4807041
:10202000224908600846006800F48070009000BFF4
:1020300000BF00BF002000900846006840F0040088
:1020400008600846006800F00400009000BF00BF70
:102050008020019002200290002003900490032031
:10206000059001A91448FFF705F9402001900220CE
:10207000029001200390022004900320059001A902
:102080000D48FFF7F7F84020019002200290012050
:102090000390022004900320059001A90748FFF750
:1020A000E9F806B010BD00000000014030380240E1
:1020B00000100240000401400020024000080240DD
:1020C00070B504460D46164600BF94F83C00012842
:1020D00001D1022070BD012084F83C0000BF022025
:1020E00084F83D0036B1042E1BD0082E31D00C2EC2
:1020F0005ED145E02946206800F054FD20688069E3
:1021000040F00800216888612068806920F00400A0
:10211000216888612068806929690843216888618D
:1021200047E02946206800F075FD2068806940F48A
:102130000060216888612068806920F480602168DF
:10214000886120688069296940EA012021688861E6
:102150002FE02946206800F09BFD2068C06940F010
:1021600008002168C8612068C06920F00400216867
:10217000C8612068C069296908432168C86118E0FE
:102180002946206800F0C0FD2068C06940F4006066
:102190002168C8612068C06920F480602168C86136
:1021A0002068C069296940EA01202168C86100E00F
:1021B00000BF00BF012084F83D0000BF002084F86C
:1021C0003C0000BF00BF85E710B504460CB90120F4
:1021D00010BD94F83D0028B9002084F83C0020464A
:1021E00000F00CF8022084F83D00211D206800F06A
:1021F00047FC012084F83D000020E9E7704700001B
:1022000070B504460E4601223146206800F0A4FC59
:102210000F492068884203D00E492068884201D1C6
:10222000012000E0002028B12068406C40F400400C
:10223000216848642068806800F00705062D05D0F5
:102240002068006840F0010021680860002070BD2F
:10225000000001400004014010B504460CB9012003
:1022600010BDA06900B100E000BF94F8390028B9A2
:10227000002084F83800204600F028F8242084F854
:1022800039002068C06820F400502168C8602046EA
:1022900000F08CFD2068006920F4904021680861FE
:1022A0002068406920F02A00216848612068C068E1
:1022B00040F400502168C8600020E063202084F8CA
:1022C000390084F83A000020CAE7000010B586B053
:1022D0000446142101A8FEF73EF8704920688842A0
:1022E00078D100BF002000906D48006840F01000D9
:1022F0006B4908600846006800F01000009000BFBD
:1023000000BF00BF0020009065481438006840F00E
:1023100002006349143908600846006800F00200B2
:10232000009000BF00BF00BF00200090084600687A
:1023300040F0010008600846006800F001000090CD
:1023400000BF00BF80200190022002900120039076
:10235000032004900720059001A95248FEF78AFF48
:102360004FF400700190022002900120039003209E
:1023700004900720059001A94B48FEF77BFF4B48CE
:102380004B4908604FF00060486040214848816038
:102390000021C1604FF480610161002141618161D0
:1023A000C1614FF44031016200214162FEF7D8FE65
:1023B00008B1FEF7DFF800BF3D482063846300BF2B
:1023C000002211462520FFF7DFF82520FFF7CCF883
:1023D00061E0FFE73749206888425CD100BF0020F8
:1023E00000902F48001F006840F480202C49091FEE
:1023F00008600846006800F48020009000BF00BF1D
:1024000000BF0020009026481438006840F0040007
:102410002349143908600846006800F00400009061
:1024200000BF00BF4FF440600190022002900120E5
:102430000390032004900720059001A91E48FEF791
:1024400019FF1E481E4908604FF0006048600021D7
:102450001B488160C1604FF48061016100214161CE
:1024600081614FF48071C1614FF4403101620021FC
:102470004162FEF775FE08B1FEF77CF800BF104818
:102480006063846300BF002211462720FFF77CF8B9
:102490002720FFF769F806B010BD000000100140CA
:1024A000443802400004024000000240B864024088
:1024B0001C01002000480040000802402860024043
:1024C0007C01002000BFFEE710B50E480E490860F1
:1024D0000320486000210C488160C1604FF4102146
:1024E00001614FF40011416100210176417681764E
:1024F000C17601774177FEF777FB08B1FEF73AF82E
:1025000010BD0000006400404C00002010B50E48D3
:102510000E4908600320486000210C488160C160BA
:102520004FF4102101614FF4001141610021017647
:1025300041768176C17601774177FEF755FB08B188
:10254000FEF718F810BD000000680040740000207D
:1025500008B500BF002000901648006840F4001045
:10256000144908600846006800F40010009000BF9D
:1025700000BF00BF002000900846006840F48000C3
:1025800008600846006800F48000009000BF00BFAB
:10259000002211460C20FEF7F7FF0C20FEF7E4FFA7
:1025A000002211464620FEF7EFFF4620FEF7DCFF33
:1025B00008BD00003038024008B500BF0020009080
:1025C0001D48006840F002001B490860084600688A
:1025D00000F00200009000BF00BF00BF002000908C
:1025E0000846006840F0010008600846006800F0F6
:1025F0000100009000BF00BF00BF0020009008460F
:10260000006840F0080008600846006800F0080014
:10261000009000BF00BF00BF002000900846006887
:1026200040F0800008600846006800F080000090DC
:1026300000BF00BF08BD00003038024000B595B0B3
:10264000002011901290139014900F9010901C2164
:1026500008A8FDF780FE20216846FDF77CFE38487B
:1026600038490860A720486000213648816044F658
:102670001F61C1600021016141618161FFF7B6FB0B
:1026800008B1FDF777FF4FF48050119011A92D4844
:10269000FFF70BFC08B1FDF76DFF2A48FFF794FD2B
:1026A00008B1FDF767FF00200F9010900FA9254893
:1026B000FFF772FB08B1FDF75DFF602008904FF453
:1026C000FA60099000200A900B900C900D900E90EB
:1026D000002208A91B48FFF7F3FC08B1FDF74AFFE9
:1026E000042208A91748FFF7EBFC08B1FDF742FFE9
:1026F000082208A91348FFF7E3FC08B1FDF73AFFE9
:102700000C2208A90F48FFF7DBFC08B1FDF732FFE8
:102710000020009001900290039004904FF400502C
:1027200005900020079069460648FFF7FBFA08B1BC
:10273000FDF720FF0348FFF73DFC15B000BD00008A
:1027400000000140F405002000B595B00020119074
:102750001290139014900F9010901C2108A8FDF770
:10276000FAFD20216846FDF7F6FD3448344908603B
:10277000A720486000213248816044F61F61C16093
:102780000021016141618161FFF730FB08B1FDF774
:10279000F1FE4FF48050119011A92948FFF785FBF5
:1027A00008B1FDF7E7FE2648FFF70EFD08B1FDF77B
:1027B000E1FE00200F9010900FA92148FFF7ECFADE
:1027C00008B1FDF7D7FE602008904FF4FA60099039
:1027D00000200A900B900C900D900E90002208A9FA
:1027E0001748FFF76DFC08B1FDF7C4FE042208A9E5
:1027F0001348FFF765FC08B1FDF7BCFE082208A9E5
:102800000F48FFF75DFC08B1FDF7B4FE0020009013
:1028100001900290039004904FF400500590002026
:10282000079069460648FFF77DFA08B1FDF7A2FE5A
:102830000348FFF7BFFB15B000BD000000040140D6
:102840003406002010B50B480B4908604FF4E13006
:102850004860002108488160C16001610C2141612C
:1028600000218161C161FFF7F7FC08B1FDF782FE2D
:1028700010BD0000001001409C00002010B50B4866
:102880000B4908600B484860002109488160C1601D
:102890004FF4806101610421416100218161C161C6
:1028A000FFF7DAFC08B1FDF765FE10BD00480040F7
:1028B000DC000020A086010000BFFEE770477047E3
:1028C00010B5234B1B685B6943F04003204C246820
:1028D00063611F4B1B68DB6843F010031C4C2468CA
:1028E000E3601C4B1B681B6823F00103194C246830
:1028F000236007E0174B1B681B6823F00103154C8E
:1029000024682360134B1B681B6803F00103002B32
:10291000F0D1114B0F4C2468A3600E4B1B68D8609C
:102920000C4B1B6819610B4B1B685A60094B1B68E9
:102930001B6843F48023074C24682360054B1B6805
:102940001B6843F00103034C2468236010BD0000A2
:10295000DC0000207C01002004480040704710B5D6
:10296000FEF78EFD10BD000000B593B0302107A822
:10297000FDF7F1FC142102A8FDF7EDFC00BF0020DB
:1029800001902448006840F08050224908600846C1
:10299000006800F08050019000BF00BF00BF002021
:1029A00001901D48006840F480401B4908600846BB
:1029B000006800F48040019000BF00BF0120079034
:1029C0000004089002200D9041050E9106210F9100
:1029D000A8211091022111910421129107A8FEF75C
:1029E00063FF08B1FDF7C6FD0F200290022003909F
:1029F000002004904FF4A05005904FF480500690B2
:102A0000052102A8FEF712FE08B1FDF7B3FD13B0D1
:102A100000BD0000403802400070004014480068CB
:102A200040F47000124908601248006840F001004C
:102A30001049086000200F49083108600D480068FF
:102A40000D4908400B4908600C48091D0860081F23
:102A5000006820F48020091F0860002005490C311F
:102A600008604FF00060024980390860704700003C
:102A700088ED00E000380240FFFFF6FE1030002431
:102A800010B50268294B98420ED0B0F1804F0BD0A0
:102A9000274B984208D0274B984205D0264B9842A6
:102AA00002D0264B984203D122F070024B681A43A1
:102AB0001E4B984220D0B0F1804F1DD01C4B984245
:102AC0001AD01C4B984217D01B4B984214D01B4B6A
:102AD000984211D01A4B98420ED01A4B98420BD004
:102AE000194B984208D0194B984205D0184B984280
:102AF00002D0184B984203D122F44072CB681A439B
:102B000022F080034C6943EA040202608B68C362CE
:102B10000B688362054B984202D0084B984201D162
:102B20000B6903630123436110BD000000000140F5
:102B30000004004000080040000C00400004014078
:102B4000004001400044014000480140001800409E
:102B5000001C00400020004030B501F01F0501249A
:102B600004FA05F3046A9C430462046A01F01F0539
:102B700002FA05F52C43046230BD30B50C4681687D
:102B800021F47F4142EA032525432943816030BD7A
:102B90000A46816821F0700142F007031943816001
:102BA0007047000030B5056A25F001050562026A2C
:102BB0004368846924F0700424F003040D682C43F6
:102BC00022F002028D682A43104DA84200D103E092
:102BD0000F4DA84206D100BF22F00802CD682A435B
:102BE00022F00402094DA84202D0094DA84207D1A3
:102BF00023F4807323F400734D692B438D692B43B9
:102C0000436084614D684563026230BD000001404D
:102C10000004014030B5056A25F010050562026A1E
:102C20004368846924F4E04424F440740D6844EA61
:102C3000052422F020028D6842EA0512124DA842B6
:102C400000D103E0114DA84207D100BF22F080025D
:102C5000CD6842EA051222F040020B4DA84202D094
:102C60000A4DA84209D123F4806323F400634D691F
:102C700043EA85038D6943EA8503436084614D68B7
:102C80008563026230BD0000000001400004014085
:102C900030B5056A25F480750562026A4368C46927
:102CA00024F0700424F003040D682C4322F4007215
:102CB0008D6842EA0522124DA84200D103E0114D71
:102CC000A84207D100BF22F40062CD6842EA052283
:102CD00022F480620A4DA84202D00A4DA84209D1CE
:102CE00023F4805323F400534D6943EA05138D699F
:102CF00043EA05134360C4614D68C563026230BD99
:102D0000000001400004014030B5056A25F48055FB
:102D10000562036A4468C26922F4E04222F4407208
:102D20000D6842EA052223F400538D6843EA053317
:102D3000084DA84202D0084DA84204D124F4804492
:102D40004D6944EA85144460C2614D6805640362BC
:102D500030BD0000000001400004014030B50B46CA
:102D60001446026A056A25F001050562816921F0B1
:102D7000F00141EA041122F00A021A438161026261
:102D800030BD30B50B461446056A25F010050562C6
:102D90008169026A21F4704141EA043122F0A00203
:102DA00042EA03128161026230BD00002DE9F04168
:102DB00004462068006920F44050E1680843216817
:102DC00008612169A068084361690843E16940EA34
:102DD00001052068C06849F20C61884328432168D6
:102DE000C8602068406920F44070A16908432168E8
:102DF0004861E069B0F5004F7ED1C449206888423F
:102E000003D0C349206888425DD1FEF7E5FC00EBA2
:102E1000C00101EB001061684900B0FBF1F06421D2
:102E2000B0FBF1F00601FEF7D7FC00EBC00101EBAF
:102E3000001061684900B0FBF1F7FEF7CDFC00EB34
:102E4000C00101EB001061684900B0FBF1F06421A2
:102E5000B0FBF1F000EBC00101EB0010A7EB80002C
:102E6000322101EBC0006421B0FBF1F000F0F8006A
:102E700006EB4006FEF7B0FC00EBC00101EB0010D2
:102E800061684900B0FBF1F7FEF7A6FC00EBC0015A
:102E900001EB001061684900B0FBF1F06421B0FB68
:102EA000F1F000EBC00101EB0010A7EB8000322134
:102EB00001EBC0006421B0FBF1F000F007003044EA
:102EC0002168886020E1FEF777FC00EBC00101EB90
:102ED000001061684900B0FBF1F06421B0FBF1F033
:102EE0000601FEF769FC00EBC00101EB0010616810
:102EF0004900B0FBF1F700E045E0FEF75DFC00EBB8
:102F0000C00101EB001061684900B0FBF1F06421E1
:102F1000B0FBF1F000EBC00101EB0010A7EB80006B
:102F2000322101EBC0006421B0FBF1F000F0F800A9
:102F300006EB4006FEF740FC00EBC00101EB001081
:102F400061684900B0FBF1F7FEF736FC00EBC00109
:102F500001EB001061684900B0FBF1F06421B0FBA7
:102F6000F1F000EBC00101EB0010A7EB8000322173
:102F700001EBC0006421B0FBF1F000F00700304429
:102F800021688860C0E061492068884203D06049B8
:102F9000206888425CD1FEF71FFC00EBC00101EB0A
:102FA000001061688900B0FBF1F6FEF715FC00EB3C
:102FB000C00101EB001061688900B0FBF1F06421F1
:102FC000B0FBF1F000EBC00101EB0010A6EB8000BC
:102FD000322101EB00106421B0FBF1F000F0F006AB
:102FE000FEF7FAFB00EBC00101EB001061688900FD
:102FF000B0FBF1F06421B0FBF1F006EB0016FEF738
:10300000EBFB00EBC00101EB001061688900B0FB35
:10301000F1F7FEF7E1FB00EBC00101EB0010616886
:103020008900B0FBF1F06421B0FBF1F000EBC001CE
:1030300001EB0010A7EB8000322101EB00106421AE
:10304000B0FBF1F000F00F003044216888605BE0D5
:10305000FEF7B2FB00EBC00101EB001061688900D4
:10306000B0FBF1F6FEF7A8FB00EBC00101EB00108E
:1030700061688900B0FBF1F06421B0FBF1F000EB76
:10308000C00101EB0010A6EB8000322101EB001023
:103090006421B0FBF1F000F0F006FEF78DFB00EBD1
:1030A000C00101EB001061688900B0FBF1F0642100
:1030B000B0FBF1F006EB0016FEF77EFB00EBC00163
:1030C00001EB001061688900B0FBF1F7FEF774FBBB
:1030D00000EBC00101EB001061688900B0FBF1F06A
:1030E0006421B0FBF1F000EBC00101EB0010A7EB95
:1030F0008000322101EB00106421B0FBF1F000F000
:103100000F00304421688860BDE8F0810010014064
:103110000014014008B541480068006800F0200034
:1031200060B100BF002000903C480068006800903B
:103130003A4800684068009000BF6EE03848006878
:1031400000F01000002868D000BF00200090334835
:10315000006800680090314800684068009000BF37
:1031600000BF30480068006800F4002058BB2D48BC
:103170000068006820F001002A49096808602948B1
:1031800000684068C0F124002749088024202549B0
:103190000968486023480068006840F4002021491D
:1031A000096808601F480068006840F001001D4978
:1031B000096808601C48008812282ED11B491C4849
:1031C00000F0B2FA29E017480068006820F001001A
:1031D000144909680860134800684068C0F1240079
:1031E0001149088024200F49096848601148806A05
:1031F00020F400200F4988620A480068006840F007
:10320000010008490968086007480088122804D1AD
:1032100006490748243000F087FA08BDDC0000208A
:10322000004800407C01002048000020EC060020FF
:10323000020700200060024000BFFEE7024800686D
:10324000C0F30220704700000CED00E010B500282C
:1032500004DB0A07130E054A135406E00A07140E8E
:10326000034A00F00F031B1FD45410BD00E400E01C
:1032700018ED00E0F0EE400AF5EEC00AF1EE10FAAB
:1032800002D2B1EE600A7047B0EE600AFBE70000C0
:1032900031B52DED060B2DED068BB0EE408AF0EE2C
:1032A000608A0446F4EEC88AF1EE10FA20DD78EE6A
:1032B000C80AB0EE600AFFF7DDFFF0EE40AADFEDCE
:1032C000350A78EEA00A70EEC80AB0EE600AFFF781
:1032D000D1FFF4EEC0AAF1EE10FA02D238EEC89A8D
:1032E00026E09FED2C0A30EE680A30EE089A1FE0C7
:1032F00078EEC80AB0EE600AFFF7BCFFF0EE40AA15
:10330000DFED250A70EEC80A70EEA80AB0EE600A7A
:10331000FFF7B0FFF4EEC0AAF1EE10FA02D238EED9
:10332000C89A05E09FED1C0A38EE800A30EE489AF4
:1033300094ED650A39EE40AAF0EE499A002011E0BA
:10334000411C04EB810191ED000A04EB800181ED49
:10335000000A04EB800191ED000A30EE290AF0EE3C
:10336000409A401C6428EBDB84ED649A9DED080ACA
:1033700020EE090ADDED0A0A0AEE200ADDED090A4F
:1033800009EEA00ADDED0B0A30EE200ABDEC068B3B
:1033900007B030BDDA0FC9C0DA0FC94033B52DED23
:1033A0000A0B2DED068B83B0F0EE408AB0EE609AEA
:1033B00005460C4600F010F9008800EE100AB8EE41
:1033C000400AF0EE409A00F0FBF8008800EE100A88
:1033D000B8EE400AB0EE408A364890ED000AF8EEAA
:1033E000C00AB0EE480A00F0A1F833490968084461
:1033F00031490860BDEEC80A2E4880ED000A084633
:1034000090ED000AF8EEC00A9FED2C1AB0EE480AC3
:1034100000EE810A2A48D0ED000AF8EEE00A30EE0C
:10342000600AF7EE000A20EE200ADFED260A80EEA1
:10343000201AB0EE418A9FED240A29EE800ADFEDC2
:103440001F0A80EE201AB0EE41AA2846DDED0E2AB2
:103450009DED0D2ADDED0C1A9DED0B1AF0EE680ABC
:10346000B0EE4A0AFFF714FF8DED010A9FED160A30
:1034700028EE000ADFED110A80EE201AB0EE41AA14
:103480002046DDED122A9DED112ADDED101A9DED8D
:103490000F1AF0EE490AB0EE4A0AFFF7F9FE8DED79
:1034A000020A9DED010ADDED020A03B0BDEC068BB8
:1034B0000CB030BD180000201400002000F8FF45BB
:1034C0001C0000202CA09941DA0FC94000B58BB038
:1034D0000120099000200790012008900020019011
:1034E0000290039004900690059001A90C48FDF706
:1034F00003F90B48FDF7FDFD02210948FDF73BF8F4
:103500000E200A90069001A90648FDF7F5F8054837
:10351000FDF7EFFD02210348FDF72DF80BB000BDCC
:103520004C0000207400002070470000B0EE401AEC
:10353000DFED131AB0EE610ADFED121A71EEC01A58
:10354000F4EEE01AF1EE10FA06D2B4EEC01AF1EE83
:1035500010FA01D201207047F4EEC00AF1EE10FA21
:103560000BD2DFED081A71EEC01AF4EEC11AF1EEBB
:1035700010FA02D24FF0FF30EDE70020EBE7000039
:1035800000F8FF4400F8FF454FF47A700A490968D3
:10359000486309490968886307490968C863064997
:1035A000096808640549096848630449096888632B
:1035B00002490968C8637047F405002034060020FA
:1035C00000487047A606002000487047EC0600201F
:1035D00000487047B0060020004870479C06002055
:1035E00030B501460A680B68002409E051F8240050
:1035F000904201DD024602E0984200DA0346641C74
:10360000322CF3DB01EE102AB8EEC11ADFED101AEE
:1036100021EE211ADFED0F1A81EE210A01EE103A98
:10362000B8EEC11ADFED0A1A21EE211ADFED091AF0
:10363000C1EE210A30EE601ADFED071AB4EEE11A8E
:10364000F1EE10FA01D2012030BD0020FCE70000AD
:10365000DA0FC94000F8FF45DA0FC93CFDF71CFF3F
:10366000FFF782F9FEF7A8FFFEF72EFFFEF74EFFE9
:10367000FEF76EFFFFF7E6F8FFF700F9FFF764F8D3
:10368000FEF7DCFFFFF780FFFFF720FF00F042F8B6
:1036900000F0BAF9FFF798FF1A4908601A48FEF7D8
:1036A000EFFB00211848FEF7ABFD04211648FEF79A
:1036B000A7FD08211448FEF7A3FD00211248FEF7DC
:1036C0009FFD1248FEF7DCFB00211048FEF798FD35
:1036D00004210E48FEF794FD08210C48FEF790FDEA
:1036E000FFF722FF00F08EF80BE00648006800F0BC
:1036F000E1F80520FDF7AAFDFFF76AFF00880449FD
:103700000860F2E700000020F405002034060020E5
:103710000800002010B524220249A1F12400FFF77F
:10372000CFF810BD2607002000B101B9704702781C
:10373000437842EA0322C2F30A020A804278D21096
:10374000837842EA4312C2F30A024A8082789211D5
:10375000C37842EA8302037942EA8322C2F30A026F
:103760008A8002795210437942EAC312C2F30A02F4
:10377000CA804279C2F301128A7242791211930807
:10378000CB728279C37942EA032212B28A81027A29
:10379000437A42EA032213B201F10C02CB81827A0E
:1037A000C37A42EA032213B201F10C020B82037BBB
:1037B0008B74437BCB74827BC37B42EA03228A8275
:1037C000027C437C42EA032212B20A810A88A2F5F3
:1037D000806212B20A804A88A2F5806212B24A80E0
:1037E0008A88A2F5806212B28A80CA88A2F58062B5
:1037F00012B2CA800A89A2F5806212B20A8100BFA1
:1038000094E700009FED1D0A1D4880ED000A9FED22
:103810001D0A1D4880ED000A9FED1C0A184880ED26
:10382000010A9FED1B0A184880ED010A9FED190A55
:10383000134880ED020A9FED180A134880ED020A32
:103840009FED150A154880ED650A9FED130A14488F
:1038500080ED650A00201349087013490860134978
:10386000086000BF06E0C0EB00114900104A42F8B2
:103870002010401C3228F6DB7047000084F9223FFC
:10388000DC01002084F9223EEC010020D5E226373D
:103890008A9BD03984F9A23D00000000FC01002081
:1038A00094030020100000201400002018000020C5
:1038B0002C05002010B52DED028B82B00446474840
:1038C0000078E0B3B4F9040000EE100AB8EEC00AC4
:1038D000DFED430A80EE201A9FED420A21EE000A36
:1038E000B0EE408AB4F9060000EE100AB8EEC00A45
:1038F000DFED3B0A80EE201A9FED3A0A21EE000A26
:10390000F0EE408A38493948394AD2ED034A92EDFF
:10391000024AD2ED013A92ED003A364AD2ED032A3C
:1039200092ED022AD2ED011A92ED001AF0EE680A29
:10393000B0EE480AFFF732FD8DED000A00E01CE012
:10394000CDED010A9DED010ADFED2B0A20EE200AE4
:10395000BDEEC00A10EE102A11B29DED000ADFED97
:10396000270A20EE200ABDEEC00A10EE102A10B27F
:1039700000231A46FCF766FD2BE000231A464FF49D
:103980007A611846FCF75EFDFFF71AFE008800EE2C
:10399000100AB8EE400AB0EE408A002006E0184A4D
:1039A000411C52F8211042F82010401C3128F6DB4F
:1039B000BDEEC80A124880ED310AFFF711FE38B19A
:1039C000012006490870BDEEC80A0E4880ED000AC5
:1039D00000BF02B0BDEC028B10BD00001000002043
:1039E00000002544DA0F494094030020FC01002028
:1039F000EC010020DC010020000080460060EA4667
:103A00002C0500201C00002004480068406940F09C
:103A10008000024909684861704700009C0000204E
:103A20004FF04070E1EE100A7047000610160006D5
:103A30001016000000000000000001020304060749
:103A40000809000000000102030400006C3A0008AD
:103A5000000000204C000000C4010008B83A000833
:103A60004C000020640D0000E00100080000000090
:103A70000000000000000000000000000000000046
:103A80000000000000000000000000000000000036
:103A900010000000010000000024F40000000000FD
:103AA0000000000000000000000000000000000016
:083AB00000000000000000000E
:040000050800018965
:00000001FF
